:10045E0050617373776F72643A0052494748540083
:0C046E004552524F5200414741494E0098
:0C04C800021509A602130000021100003A
:10012C001204A57BFF7A04795E7D017F0112040025
:10013C001200038F17E517C394004048E517D394BA
:10014C00095041C3E5129404E51194005036AE13E6
:10015C00AF147C007D0A12022F8E138F14E51775D5
:10016C00F00A84E5F02514F514E43513F5130512A3
:10017C00E51270020511750C04AB14AA137D017FF6
:10018C0002120441E517640A704AE514B5160DE530
:10019C0013B515087BFF7A04796880317BFF7A04EC
:1001AC00796E7D0B7F011204007FE87E03120490B0
:1001BC00E4F513F514F511F512750C04AB14AA1330
:1001CC007D017F021204417BFF7A0479747D0B7FE1
:1001DC0001120400E517640B600302013CF513F5F2
:1001EC0014F511F512750C04AB14AA137D017F02E2
:0601FC0012044102013C67
:1004900000EF4E600F7D027CC7DCFEDDFCEF1F70BD
:0404A000F01E80EDDD
:0104A4002235
:0604B900C2A58F80D2A74E
:0804BF007F027EC7DEFEDFFCB8
:0104C7002212
:0A04D500C2A61204B9C2A70204BFB8
:10042300CFCDCFCECCCE1202417C007D0A12024149
:04043300ED2430FF85
:0A043700D2A61204B9C2A70204BF46
:10047A00AE07BE0104ED148006BE0209ED243F4416
:06048A0080FF1204D522E0
:1004A5007F381204D57F0C1204D57F061204D57F40
:0404B500010204D567
:0A04DF00AC0312047AAF04020437E4
:060400008B088A09890A3D
:1004060012047AE4FDAB08AA09A90A8D8275830055
:0C041600120202FF60061204370D80E99C
:0104220022B7
:0C03CD007F0AEA24FFFDE434FFFC7E0000
:0803D9008E0D8F0E8C0F8D10AC
:1003E1007F017E00E4FBEBC39510E50F6480F87498
:0E03F1008098500AAC0DAD0E12022F0B80E862
:0103FF0022DB
:040441008A0A8B0B8D
:1004450012047AAA0CEAD39400400D1203CDAC0A2B
:08045500AD0B1204231A80ED27
:01045D00227C
:1003220012047AC3EA64809480400B7F2B12043754
:100332008A1D8B1E800E7F2D120437C3E49BF51E8F
:10034200E49AF51DAA1CEAD39400400D1203CDAC29
:090352001DAD1E1204231A80EDFA
:01035B00227F
:04035C008A218B2245
:1003600012047AAA23EAD3940040297F101203CF03
:10037000AC21AD22CFCDCFCECCCE120241EF540F67
:10038000FEC3940AEE5004243080022437FF120486
:04039000371A80D1C7
:010394002246
:040395008A268B2702
:1003990012047AAA28EAD394004028EA24FFFDE44B
:1003A90034FFFC7F027E001203D9AC26AD27CFCDE6
:1003B900CFCECCCE120241EF54012430FF120437C4
:0303C9001A80D2C5
:0103CC00220E
:0204E9005700BA
:100003007508E97590FFC2932097147F147E001240
:1000130004903097FD7F147E001204907508012030
:1000230096147F147E001204903096FD7F147E0098
:100033001204907508042095147F147E0012049016
:100043003095FD7F147E00120490750807209414E8
:100053007F147E001204903095FD7F147E001204FD
:100063009075080A7590FFC2922097147F147E0042
:100073001204903097FD7F147E00120490750802DD
:100083002096147F147E001204903096FD7F147E18
:10009300001204907508052095147F147E00120445
:1000A300903095FD7F147E0012049075080820940B
:1000B300147F147E001204903095FD7F147E00128D
:1000C3000490E4F5087590FFC2912097147F147E85
:1000D300001204903097FD7F147E0012049075087F
:1000E300032096147F147E001204903096FD7F1433
:1000F3007E001204907508062095147F147E00126A
:1001030004903095FD7F147E001204907508092039
:1001130094147F147E001204903095FD7F147E00AA
:0801230012049075080BAF08EF
:01012B0022B1
:0300000002029663
:0C029600787FE4F6D8FD7581280202DDB7
:10020200BB010CE58229F582E5833AF583E02250B1
:1002120006E92582F8E622BBFE06E92582F8E222FB
:0D022200E58229F582E5833AF583E4932215
:10022F00EF8DF0A4A8F0CF8CF0A428CE8DF0A42EE3
:02023F00FE229D
:10024100BC000BBE0029EF8DF084FFADF022E4CCA1
:10025100F875F008EF2FFFEE33FEEC33FCEE9DEC6A
:10026100984005FCEE9DFE0FD5F0E9E4CEFD22EDB0
:10027100F8F5F0EE8420D21CFEADF075F008EF2FFA
:10028100FFED33FD4007985006D5F0F222C398FDEB
:050291000FD5F0EA2288
:1002A20002012CE493A3F8E493A34003F68001F245
:1002B20008DFF48029E493A3F85407240CC8C3335D
:1002C200C4540F4420C8834004F456800146F6DF2C
:1002D200E4800B01020408102040809004C8E47EF0
:1002E200019360BCA3FF543F30E509541FFEE49321
:1002F200A360010ECF54C025E060A840B8E493A3E8
:10030200FAE493A3F8E493A3C8C582C8CAC583CA12
:10031200F0A3C8C582C8CAC583CADFE9DEE780BECA
:0104D4000027
:00000001FF
