:10011F0011083F065B4F666D7D077F6F777C395EF9
:03012F00797100E3
:1000F50000EF4E600F7D027CC7DCFEDDFCEF1F705C
:04010500F01E80ED7B
:0101090022D3
:10008F00EF14B4080050549000A475F003A4C58376
:10009F0025F0C583730200BC0200C00200C4020039
:1000AF00C80200CC0200D40200DC0200E4C2A4802B
:1000BF000EC2A48012C2A48016C2A4801AD2A4C2F7
:1000CF00A3C2A28016D2A4C2A3D2A2800ED2A4D25F
:1000DF00A3C2A28006D2A4D2A3D2A274082DF8E69E
:0600EF00F580E4F580221B
:10010A007D017C007F0812008F0D1F12008F0D1FCA
:05011A0012008F80EBD4
:03000000020003F8
:0C000300787FE4F6D8FD75811802004AF1
:10000F0002010AE493A3F8E493A34003F68001F2FC
:10001F0008DFF48029E493A3F85407240CC8C333F2
:10002F00C4540F4420C8834004F456800146F6DFC1
:10003F00E4800B010204081020408090011FE47E31
:10004F00019360BCA3FF543F30E509541FFEE493B6
:10005F00A360010ECF54C025E060A840B8E493A37D
:10006F00FAE493A3F8E493A3C8C582C8CAC583CAA8
:10007F00F0A3C8C582C8CAC583CADFE9DEE780BE60
:0101320000CC
:00000001FF
