:1000D30075A0FE1200F012000E8F0AE50A60F70504
:0D00E3000BE50BC3940240EEE4F50B80E941
:03000B0002007D73
:0B007D00C0E0C0D075D000C000C0077C
:10008800758A66758CFC0509E50970020508C39434
:10009800E8E508648094834029750800750900E53F
:1000A8000BB4010DAFA07801EF08800123D8FDF54E
:1000B800A0E50B700DAFA07801EF08800103D8FD13
:0200C800F5A0A1
:0900CA00D007D000D0D0D0E03204
:1000F0005389F0438901C28DD28C758A66758CFC58
:07010000D2A9D2AFC2B9225F
:10000E00E4F50CF50D20B1167F14FE12010730B188
:10001E00FD7F147E00120107750C00750D0120B0D6
:10002E00177F147E0012010730B0FD7F147E001280
:10003E000107750C00750D0220B2177F147E001299
:10004E00010730B2FD7F147E00120107750C00759A
:10005E000D0320B3177F147E0012010730B3FD7F0E
:0E006E00147E00120107750C00750D04AF0D15
:01007C002261
:1001070000EF4E600F7D027CC7DCFEDDFCEF1F7049
:04011700F01E80ED69
:01011B0022C1
:0300000002011CDE
:0C011C00787FE4F6D8FD75810D0200D359
:00000001FF
