:0E036700436C6F636B3A0020203A20203A006E
:09037500011A39011C3B011B17A0
:10012E001203441203027BFF7A0379677D017F017C
:10013E001202A47BFF7A03796E7D017F021202A464
:10014E00E51BFB7A00750C027D017F021202E5E5CC
:10015E001CFB7A00750C027D047F021202E5E51A83
:0F016E00FB7A00750C027D077F021202E580D13B
:03000B0002017D72
:04017D00C0E0C0D04E
:10018100758A66758CFC0519E51970020518C3940A
:10019100E8E51864809483402775180075190005F7
:1001A1001AE51A943C4019751A00051CE51C943C8B
:1001B100400E751C00051BE51B94184003751B00C0
:0501C100D0D0D0E032B7
:10032F0000EF4E600F7D027CC7DCFEDDFCEF1F701F
:04033F00F01E80ED3F
:010343002297
:06035800C2A58F80D2A7B0
:08035E007F027EC7DEFEDFFC1A
:010366002274
:0A037F00C2A6120358C2A702035ED3
:1002C700CFCDCFCECCCE12004D7C007D0A12004D93
:0402D700ED2430FFE3
:0A02DB00D2A6120358C2A702035E68
:10031900AE07BE0104ED148006BE0209ED243F4478
:0603290080FF12037F2299
:100344007F3812037F7F0C12037F7F0612037F7FA7
:040354000102037F20
:0A038900AC03120319AF040202DBFB
:0602A4008B088A09890A9B
:1002AA00120319E4FDAB08AA09A90A8D8275830015
:0C02BA0012000EFF60061202DB0D80E94E
:0102C6002215
:0C0271007F0AEA24FFFDE434FFFC7E005D
:08027D008E0D8F0E8C0F8D1009
:100285007F017E00E4FBEBC39510E50F6480F874F5
:0E0295008098500AAC0DAD0E12003B0B80E8B5
:0102A3002238
:0402E5008A0A8B0BEB
:1002E900120319AA0CEAD39400400D120271AC0A48
:0802F900AD0B1202C71A80EDE3
:0103010022D9
:1001C600120319C3EA64809480400B7F2B1202DB72
:1001D6008A168B17800E7F2D1202DBC3E49BF51760
:1001E600E49AF516AA15EAD39400400D120271ACF2
:0901F60016AD171202C71A80EDC4
:0101FF0022DD
:040200008A1F8B20A6
:10020400120319AA21EAD3940040297F1012027321
:10021400AC1FAD20CFCDCFCECCCE12004DEF540FBE
:10022400FEC3940AEE5004243080022437FF1202E5
:04023400DB1A80D180
:0102380022A3
:040239008A248B2563
:10023D00120319AA26EAD394004028EA24FFFDE40C
:10024D0034FFFC7F027E0012027DAC24AD25CFCDA4
:10025D00CFCECCCE12004DEF54012430FF1202DB75
:03026D001A80D222
:01027000226B
:100302005389F0438901C28DD28C758A66758CFC43
:07031200D2A9D2AFC2B9224B
:030000000200A259
:0C00A200787FE4F6D8FD7581260200E9A5
:10000E00BB010CE58229F582E5833AF583E02250A7
:10001E0006E92582F8E622BBFE06E92582F8E222F1
:0D002E00E58229F582E5833AF583E493220B
:10003B00EF8DF0A4A8F0CF8CF0A428CE8DF0A42ED9
:02004B00FE2293
:10004D00BC000BBE0029EF8DF084FFADF022E4CC97
:10005D00F875F008EF2FFFEE33FEEC33FCEE9DEC60
:10006D00984005FCEE9DFE0FD5F0E9E4CEFD22EDA6
:10007D00F8F5F0EE8420D21CFEADF075F008EF2FF0
:10008D00FFED33FD4007985006D5F0F222C398FDE1
:05009D000FD5F0EA227E
:1000AE0002012EE493A3F8E493A34003F68001F239
:1000BE0008DFF48029E493A3F85407240CC8C33353
:1000CE00C4540F4420C8834004F456800146F6DF22
:1000DE00E4800B0102040810204080900375E47E3A
:1000EE00019360BCA3FF543F30E509541FFEE49317
:1000FE00A360010ECF54C025E060A840B8E493A3DE
:10010E00FAE493A3F8E493A3C8C582C8CAC583CA08
:10011E00F0A3C8C582C8CAC583CADFE9DEE780BEC0
:01037E00007E
:00000001FF
