:0B035B004D61747269784B65793A00BF
:10023D0012032C7BFF7A03795B7D017F011202A3F0
:10024D001200038F22E522C3940040F4E522D394DB
:10025D000950EDEFFB7A00750C017D017F02120252
:03026D00E480DD4D
:1003170000EF4E600F7D027CC7DCFEDDFCEF1F7037
:04032700F01E80ED57
:01032B0022AF
:06034000C2A58F80D2A7C8
:080346007F027EC7DEFEDFFC32
:01034E00228C
:0A036600C2A6120340C2A70203461C
:1002C600CFCDCFCECCCE12013D7C007D0A12013DB2
:0402D600ED2430FFE4
:0A02DA00D2A6120340C2A702034699
:10030100AE07BE0104ED148006BE0209ED243F4490
:0603110080FF12036622CA
:10032C007F381203667F0C1203667F061203667F0A
:04033C000102036651
:0A037000AC03120301AF040202DA2D
:0602A3008B088A09890A9C
:1002A900120301E4FDAB08AA09A90A8D827583002E
:0C02B9001200FEFF60061202DA0D80E960
:0102C5002216
:0C0270007F0AEA24FFFDE434FFFC7E005E
:08027C008E0D8F0E8C0F8D100A
:100284007F017E00E4FBEBC39510E50F6480F874F6
:0E0294008098500AAC0DAD0E12012B0B80E8C5
:0102A2002239
:0402E4008A0A8B0BEC
:1002E800120301AA0CEAD39400400D120270AC0A62
:0802F800AD0B1202C61A80EDE5
:0103000022DA
:10019200120301C3EA64809480400B7F2B1202DABF
:1001A2008A168B17800E7F2D1202DAC3E49BF51795
:1001B200E49AF516AA15EAD39400400D120270AC27
:0901C20016AD171202C61A80EDF9
:0101CB002211
:0401CC008A1A8B1BE5
:1001D000120301AA1CEAD3940040297F1012027274
:1001E000AC1AAD1BCFCDCFCECCCE12013DEF540F0C
:1001F000FEC3940AEE5004243080022437FF12021A
:04020000DA1A80D1B5
:0102040022D7
:040205008A1F8B20A1
:10020900120301AA21EAD394004028EA24FFFDE45D
:1002190034FFFC7F027E0012027CAC1FAD20CFCDE3
:10022900CFCECCCE12013DEF54012430FF1202DAB9
:030239001A80D256
:01023C00229F
:02037A0057002A
:1000030075087A7590FFC2932097147F147E0012AF
:1000130003173097FD7F147E001203177508012024
:1000230096147F147E001203173096FD7F147E0012
:100033001203177508062095147F147E0012031708
:100043003095FD7F147E001203177508077590FF26
:10005300C2922097147F147E001203173097FD7FFE
:10006300147E001203177508022096147F147E0075
:100073001203173096FD7F147E00120317750805CF
:100083002095147F147E001203173095FD7F147E94
:10009300001203177508082094147F147E001203BE
:1000A300173095FD7F147E00120317E4F508759051
:1000B300FFC2912097147F147E001203173097FD1F
:1000C3007F147E001203177508032096147F147E95
:1000D300001203173096FD7F147E00120317750874
:1000E300042095147F147E001203173095FD7F14AE
:0A00F3007E00120317750809AF081C
:0100FD0022E0
:0300000002034FA9
:0C034F00787FE4F6D8FD75812202023DA3
:1000FE00BB010CE58229F582E5833AF583E02250B7
:10010E0006E92582F8E622BBFE06E92582F8E22200
:0D011E00E58229F582E5833AF583E493221A
:10012B00EF8DF0A4A8F0CF8CF0A428CE8DF0A42EE8
:02013B00FE22A2
:10013D00BC000BBE0029EF8DF084FFADF022E4CCA6
:10014D00F875F008EF2FFFEE33FEEC33FCEE9DEC6F
:10015D00984005FCEE9DFE0FD5F0E9E4CEFD22EDB5
:10016D00F8F5F0EE8420D21CFEADF075F008EF2FFF
:10017D00FFED33FD4007985006D5F0F222C398FDF0
:05018D000FD5F0EA228D
:00000001FF
